{
  "_format": "hh-sol-artifact-1",
  "contractName": "CrowdFunding",
  "sourceName": "contracts/CrowdFunding.sol",
  "abi": [
    {
      "anonymous": false,
      "inputs": [
        {
          "indexed": true,
          "internalType": "uint256",
          "name": "campaignId",
          "type": "uint256"
        },
        {
          "indexed": true,
          "internalType": "address",
          "name": "owner",
          "type": "address"
        },
        {
          "indexed": false,
          "internalType": "uint256",
          "name": "amount",
          "type": "uint256"
        },
        {
          "indexed": false,
          "internalType": "uint256",
          "name": "timestamp",
          "type": "uint256"
        }
      ],
      "name": "FundsWithdrawn",
      "type": "event"
    },
    {
      "inputs": [
        {
          "internalType": "uint256",
          "name": "",
          "type": "uint256"
        }
      ],
      "name": "campaigns",
      "outputs": [
        {
          "internalType": "address",
          "name": "owner",
          "type": "address"
        },
        {
          "internalType": "string",
          "name": "title",
          "type": "string"
        },
        {
          "internalType": "string",
          "name": "description",
          "type": "string"
        },
        {
          "internalType": "uint256",
          "name": "target",
          "type": "uint256"
        },
        {
          "internalType": "uint256",
          "name": "deadline",
          "type": "uint256"
        },
        {
          "internalType": "uint256",
          "name": "amountCollected",
          "type": "uint256"
        },
        {
          "internalType": "string",
          "name": "image",
          "type": "string"
        },
        {
          "internalType": "bool",
          "name": "claimed",
          "type": "bool"
        }
      ],
      "stateMutability": "view",
      "type": "function"
    },
    {
      "inputs": [
        {
          "internalType": "address",
          "name": "_owner",
          "type": "address"
        },
        {
          "internalType": "string",
          "name": "_title",
          "type": "string"
        },
        {
          "internalType": "string",
          "name": "_description",
          "type": "string"
        },
        {
          "internalType": "uint256",
          "name": "_target",
          "type": "uint256"
        },
        {
          "internalType": "uint256",
          "name": "_deadline",
          "type": "uint256"
        },
        {
          "internalType": "string",
          "name": "_image",
          "type": "string"
        }
      ],
      "name": "createCampaign",
      "outputs": [
        {
          "internalType": "uint256",
          "name": "",
          "type": "uint256"
        }
      ],
      "stateMutability": "nonpayable",
      "type": "function"
    },
    {
      "inputs": [
        {
          "internalType": "uint256",
          "name": "_id",
          "type": "uint256"
        }
      ],
      "name": "donateToCampaign",
      "outputs": [],
      "stateMutability": "payable",
      "type": "function"
    },
    {
      "inputs": [],
      "name": "getCampaigns",
      "outputs": [
        {
          "components": [
            {
              "internalType": "address",
              "name": "owner",
              "type": "address"
            },
            {
              "internalType": "string",
              "name": "title",
              "type": "string"
            },
            {
              "internalType": "string",
              "name": "description",
              "type": "string"
            },
            {
              "internalType": "uint256",
              "name": "target",
              "type": "uint256"
            },
            {
              "internalType": "uint256",
              "name": "deadline",
              "type": "uint256"
            },
            {
              "internalType": "uint256",
              "name": "amountCollected",
              "type": "uint256"
            },
            {
              "internalType": "string",
              "name": "image",
              "type": "string"
            },
            {
              "internalType": "address[]",
              "name": "donators",
              "type": "address[]"
            },
            {
              "internalType": "uint256[]",
              "name": "donations",
              "type": "uint256[]"
            },
            {
              "internalType": "bool",
              "name": "claimed",
              "type": "bool"
            }
          ],
          "internalType": "struct CrowdFunding.Campaign[]",
          "name": "",
          "type": "tuple[]"
        }
      ],
      "stateMutability": "view",
      "type": "function"
    },
    {
      "inputs": [
        {
          "internalType": "uint256",
          "name": "_id",
          "type": "uint256"
        }
      ],
      "name": "getDonators",
      "outputs": [
        {
          "internalType": "address[]",
          "name": "",
          "type": "address[]"
        },
        {
          "internalType": "uint256[]",
          "name": "",
          "type": "uint256[]"
        }
      ],
      "stateMutability": "view",
      "type": "function"
    },
    {
      "inputs": [],
      "name": "numberOfCampaigns",
      "outputs": [
        {
          "internalType": "uint256",
          "name": "",
          "type": "uint256"
        }
      ],
      "stateMutability": "view",
      "type": "function"
    },
    {
      "inputs": [
        {
          "internalType": "uint256",
          "name": "_id",
          "type": "uint256"
        }
      ],
      "name": "withdraw",
      "outputs": [],
      "stateMutability": "nonpayable",
      "type": "function"
    }
  ],
  "bytecode": "0x60806040526000600155348015601457600080fd5b50611e65806100246000396000f3fe6080604052600436106100705760003560e01c80632e1a7d4d1161004e5780632e1a7d4d1461012257806342a4fda81461014b5780639943e3a114610167578063a6b03633146101a457610070565b806307ca140d146100755780630fa91fa9146100a0578063141961bc146100de575b600080fd5b34801561008157600080fd5b5061008a6101cf565b6040516100979190610e19565b60405180910390f35b3480156100ac57600080fd5b506100c760048036038101906100c29190610e74565b6101d5565b6040516100d592919061104f565b60405180910390f35b3480156100ea57600080fd5b5061010560048036038101906101009190610e74565b6102e5565b604051610119989796959493929190611140565b60405180910390f35b34801561012e57600080fd5b5061014960048036038101906101449190610e74565b6104f2565b005b61016560048036038101906101609190610e74565b61075c565b005b34801561017357600080fd5b5061018e60048036038101906101899190611334565b61086a565b60405161019b9190610e19565b60405180910390f35b3480156101b057600080fd5b506101b96109aa565b6040516101c69190611704565b60405180910390f35b60015481565b6060806000808481526020019081526020016000206007016000808581526020019081526020016000206008018180548060200260200160405190810160405280929190818152602001828054801561028357602002820191906000526020600020905b8160009054906101000a900473ffffffffffffffffffffffffffffffffffffffff1673ffffffffffffffffffffffffffffffffffffffff1681526020019060010190808311610239575b50505050509150808054806020026020016040519081016040528092919081815260200182805480156102d557602002820191906000526020600020905b8154815260200190600101908083116102c1575b5050505050905091509150915091565b60006020528060005260406000206000915090508060000160009054906101000a900473ffffffffffffffffffffffffffffffffffffffff169080600101805461032e90611755565b80601f016020809104026020016040519081016040528092919081815260200182805461035a90611755565b80156103a75780601f1061037c576101008083540402835291602001916103a7565b820191906000526020600020905b81548152906001019060200180831161038a57829003601f168201915b5050505050908060020180546103bc90611755565b80601f01602080910402602001604051908101604052809291908181526020018280546103e890611755565b80156104355780601f1061040a57610100808354040283529160200191610435565b820191906000526020600020905b81548152906001019060200180831161041857829003601f168201915b50505050509080600301549080600401549080600501549080600601805461045c90611755565b80601f016020809104026020016040519081016040528092919081815260200182805461048890611755565b80156104d55780601f106104aa576101008083540402835291602001916104d5565b820191906000526020600020905b8154815290600101906020018083116104b857829003601f168201915b5050505050908060090160009054906101000a900460ff16905088565b600080600083815260200190815260200160002090508060000160009054906101000a900473ffffffffffffffffffffffffffffffffffffffff1673ffffffffffffffffffffffffffffffffffffffff163373ffffffffffffffffffffffffffffffffffffffff161461059a576040517f08c379a0000000000000000000000000000000000000000000000000000000008152600401610591906117d2565b60405180910390fd5b60008160050154116105e1576040517f08c379a00000000000000000000000000000000000000000000000000000000081526004016105d89061183e565b60405180910390fd5b8060090160009054906101000a900460ff1615610633576040517f08c379a000000000000000000000000000000000000000000000000000000000815260040161062a906118aa565b60405180910390fd5b60008160050154905060018260090160006101000a81548160ff02191690831515021790555060003373ffffffffffffffffffffffffffffffffffffffff168260405161067f906118fb565b60006040518083038185875af1925050503d80600081146106bc576040519150601f19603f3d011682016040523d82523d6000602084013e6106c1565b606091505b5050905080610705576040517f08c379a00000000000000000000000000000000000000000000000000000000081526004016106fc9061195c565b60405180910390fd5b3373ffffffffffffffffffffffffffffffffffffffff16847f3dbb1a26f29aef1264c12ca1285deb60cca5666d8b17100c7ea1602c0a4014f6844260405161074e92919061197c565b60405180910390a350505050565b600034905060008060008481526020019081526020016000209050806004015442106107bd576040517f08c379a00000000000000000000000000000000000000000000000000000000081526004016107b4906119f1565b60405180910390fd5b80600701339080600181540180825580915050600190039060005260206000200160009091909190916101000a81548173ffffffffffffffffffffffffffffffffffffffff021916908373ffffffffffffffffffffffffffffffffffffffff1602179055508060080182908060018154018082558091505060019003906000526020600020016000909190919091505581816005015461085d9190611a40565b8160050181905550505050565b600080600080600154815260200190815260200160002090504284116108c5576040517f08c379a00000000000000000000000000000000000000000000000000000000081526004016108bc90611ae6565b60405180910390fd5b878160000160006101000a81548173ffffffffffffffffffffffffffffffffffffffff021916908373ffffffffffffffffffffffffffffffffffffffff160217905550868160010190816109199190611cb2565b508581600201908161092b9190611cb2565b5084816003018190555083816004018190555060008160050181905550828160060190816109599190611cb2565b5060008160090160006101000a81548160ff0219169083151502179055506001600081548092919061098a90611d84565b91905055506001805461099d9190611dcc565b9150509695505050505050565b6060600060015467ffffffffffffffff8111156109ca576109c9611209565b5b604051908082528060200260200182016040528015610a0357816020015b6109f0610d95565b8152602001906001900390816109e85790505b50905060005b600154811015610d8d576000806000838152602001908152602001600020905080604051806101400160405290816000820160009054906101000a900473ffffffffffffffffffffffffffffffffffffffff1673ffffffffffffffffffffffffffffffffffffffff1673ffffffffffffffffffffffffffffffffffffffff168152602001600182018054610a9c90611755565b80601f0160208091040260200160405190810160405280929190818152602001828054610ac890611755565b8015610b155780601f10610aea57610100808354040283529160200191610b15565b820191906000526020600020905b815481529060010190602001808311610af857829003601f168201915b50505050508152602001600282018054610b2e90611755565b80601f0160208091040260200160405190810160405280929190818152602001828054610b5a90611755565b8015610ba75780601f10610b7c57610100808354040283529160200191610ba7565b820191906000526020600020905b815481529060010190602001808311610b8a57829003601f168201915b50505050508152602001600382015481526020016004820154815260200160058201548152602001600682018054610bde90611755565b80601f0160208091040260200160405190810160405280929190818152602001828054610c0a90611755565b8015610c575780601f10610c2c57610100808354040283529160200191610c57565b820191906000526020600020905b815481529060010190602001808311610c3a57829003601f168201915b5050505050815260200160078201805480602002602001604051908101604052809291908181526020018280548015610ce557602002820191906000526020600020905b8160009054906101000a900473ffffffffffffffffffffffffffffffffffffffff1673ffffffffffffffffffffffffffffffffffffffff1681526020019060010190808311610c9b575b5050505050815260200160088201805480602002602001604051908101604052809291908181526020018280548015610d3d57602002820191906000526020600020905b815481526020019060010190808311610d29575b505050505081526020016009820160009054906101000a900460ff161515151581525050838381518110610d7457610d73611e00565b5b6020026020010181905250508080600101915050610a09565b508091505090565b604051806101400160405280600073ffffffffffffffffffffffffffffffffffffffff16815260200160608152602001606081526020016000815260200160008152602001600081526020016060815260200160608152602001606081526020016000151581525090565b6000819050919050565b610e1381610e00565b82525050565b6000602082019050610e2e6000830184610e0a565b92915050565b6000604051905090565b600080fd5b600080fd5b610e5181610e00565b8114610e5c57600080fd5b50565b600081359050610e6e81610e48565b92915050565b600060208284031215610e8a57610e89610e3e565b5b6000610e9884828501610e5f565b91505092915050565b600081519050919050565b600082825260208201905092915050565b6000819050602082019050919050565b600073ffffffffffffffffffffffffffffffffffffffff82169050919050565b6000610ef882610ecd565b9050919050565b610f0881610eed565b82525050565b6000610f1a8383610eff565b60208301905092915050565b6000602082019050919050565b6000610f3e82610ea1565b610f488185610eac565b9350610f5383610ebd565b8060005b83811015610f84578151610f6b8882610f0e565b9750610f7683610f26565b925050600181019050610f57565b5085935050505092915050565b600081519050919050565b600082825260208201905092915050565b6000819050602082019050919050565b610fc681610e00565b82525050565b6000610fd88383610fbd565b60208301905092915050565b6000602082019050919050565b6000610ffc82610f91565b6110068185610f9c565b935061101183610fad565b8060005b838110156110425781516110298882610fcc565b975061103483610fe4565b925050600181019050611015565b5085935050505092915050565b600060408201905081810360008301526110698185610f33565b9050818103602083015261107d8184610ff1565b90509392505050565b61108f81610eed565b82525050565b600081519050919050565b600082825260208201905092915050565b60005b838110156110cf5780820151818401526020810190506110b4565b60008484015250505050565b6000601f19601f8301169050919050565b60006110f782611095565b61110181856110a0565b93506111118185602086016110b1565b61111a816110db565b840191505092915050565b60008115159050919050565b61113a81611125565b82525050565b600061010082019050611156600083018b611086565b8181036020830152611168818a6110ec565b9050818103604083015261117c81896110ec565b905061118b6060830188610e0a565b6111986080830187610e0a565b6111a560a0830186610e0a565b81810360c08301526111b781856110ec565b90506111c660e0830184611131565b9998505050505050505050565b6111dc81610eed565b81146111e757600080fd5b50565b6000813590506111f9816111d3565b92915050565b600080fd5b600080fd5b7f4e487b7100000000000000000000000000000000000000000000000000000000600052604160045260246000fd5b611241826110db565b810181811067ffffffffffffffff821117156112605761125f611209565b5b80604052505050565b6000611273610e34565b905061127f8282611238565b919050565b600067ffffffffffffffff82111561129f5761129e611209565b5b6112a8826110db565b9050602081019050919050565b82818337600083830152505050565b60006112d76112d284611284565b611269565b9050828152602081018484840111156112f3576112f2611204565b5b6112fe8482856112b5565b509392505050565b600082601f83011261131b5761131a6111ff565b5b813561132b8482602086016112c4565b91505092915050565b60008060008060008060c0878903121561135157611350610e3e565b5b600061135f89828a016111ea565b965050602087013567ffffffffffffffff8111156113805761137f610e43565b5b61138c89828a01611306565b955050604087013567ffffffffffffffff8111156113ad576113ac610e43565b5b6113b989828a01611306565b94505060606113ca89828a01610e5f565b93505060806113db89828a01610e5f565b92505060a087013567ffffffffffffffff8111156113fc576113fb610e43565b5b61140889828a01611306565b9150509295509295509295565b600081519050919050565b600082825260208201905092915050565b6000819050602082019050919050565b600082825260208201905092915050565b600061145d82611095565b6114678185611441565b93506114778185602086016110b1565b611480816110db565b840191505092915050565b600082825260208201905092915050565b60006114a782610ea1565b6114b1818561148b565b93506114bc83610ebd565b8060005b838110156114ed5781516114d48882610f0e565b97506114df83610f26565b9250506001810190506114c0565b5085935050505092915050565b600082825260208201905092915050565b600061151682610f91565b61152081856114fa565b935061152b83610fad565b8060005b8381101561155c5781516115438882610fcc565b975061154e83610fe4565b92505060018101905061152f565b5085935050505092915050565b61157281611125565b82525050565b6000610140830160008301516115916000860182610eff565b50602083015184820360208601526115a98282611452565b915050604083015184820360408601526115c38282611452565b91505060608301516115d86060860182610fbd565b5060808301516115eb6080860182610fbd565b5060a08301516115fe60a0860182610fbd565b5060c083015184820360c08601526116168282611452565b91505060e083015184820360e0860152611630828261149c565b91505061010083015184820361010086015261164c828261150b565b915050610120830151611663610120860182611569565b508091505092915050565b600061167a8383611578565b905092915050565b6000602082019050919050565b600061169a82611415565b6116a48185611420565b9350836020820285016116b685611431565b8060005b858110156116f257848403895281516116d3858261166e565b94506116de83611682565b925060208a019950506001810190506116ba565b50829750879550505050505092915050565b6000602082019050818103600083015261171e818461168f565b905092915050565b7f4e487b7100000000000000000000000000000000000000000000000000000000600052602260045260246000fd5b6000600282049050600182168061176d57607f821691505b6020821081036117805761177f611726565b5b50919050565b7f4f6e6c79206f776e65722063616e207769746864726177000000000000000000600082015250565b60006117bc6017836110a0565b91506117c782611786565b602082019050919050565b600060208201905081810360008301526117eb816117af565b9050919050565b7f4e6f2066756e647320746f207769746864726177000000000000000000000000600082015250565b60006118286014836110a0565b9150611833826117f2565b602082019050919050565b600060208201905081810360008301526118578161181b565b9050919050565b7f46756e647320616c726561647920636c61696d65640000000000000000000000600082015250565b60006118946015836110a0565b915061189f8261185e565b602082019050919050565b600060208201905081810360008301526118c381611887565b9050919050565b600081905092915050565b50565b60006118e56000836118ca565b91506118f0826118d5565b600082019050919050565b6000611906826118d8565b9150819050919050565b7f4661696c656420746f2073656e64204574686572000000000000000000000000600082015250565b60006119466014836110a0565b915061195182611910565b602082019050919050565b6000602082019050818103600083015261197581611939565b9050919050565b60006040820190506119916000830185610e0a565b61199e6020830184610e0a565b9392505050565b7f43616d706169676e20456e646564000000000000000000000000000000000000600082015250565b60006119db600e836110a0565b91506119e6826119a5565b602082019050919050565b60006020820190508181036000830152611a0a816119ce565b9050919050565b7f4e487b7100000000000000000000000000000000000000000000000000000000600052601160045260246000fd5b6000611a4b82610e00565b9150611a5683610e00565b9250828201905080821115611a6e57611a6d611a11565b5b92915050565b7f54686520646561646c696e652073686f756c642062652061206461746520696e60008201527f20746865206675747572652e0000000000000000000000000000000000000000602082015250565b6000611ad0602c836110a0565b9150611adb82611a74565b604082019050919050565b60006020820190508181036000830152611aff81611ac3565b9050919050565b60008190508160005260206000209050919050565b60006020601f8301049050919050565b600082821b905092915050565b600060088302611b687fffffffffffffffffffffffffffffffffffffffffffffffffffffffffffffffff82611b2b565b611b728683611b2b565b95508019841693508086168417925050509392505050565b6000819050919050565b6000611baf611baa611ba584610e00565b611b8a565b610e00565b9050919050565b6000819050919050565b611bc983611b94565b611bdd611bd582611bb6565b848454611b38565b825550505050565b600090565b611bf2611be5565b611bfd818484611bc0565b505050565b5b81811015611c2157611c16600082611bea565b600181019050611c03565b5050565b601f821115611c6657611c3781611b06565b611c4084611b1b565b81016020851015611c4f578190505b611c63611c5b85611b1b565b830182611c02565b50505b505050565b600082821c905092915050565b6000611c8960001984600802611c6b565b1980831691505092915050565b6000611ca28383611c78565b9150826002028217905092915050565b611cbb82611095565b67ffffffffffffffff811115611cd457611cd3611209565b5b611cde8254611755565b611ce9828285611c25565b600060209050601f831160018114611d1c5760008415611d0a578287015190505b611d148582611c96565b865550611d7c565b601f198416611d2a86611b06565b60005b82811015611d5257848901518255600182019150602085019450602081019050611d2d565b86831015611d6f5784890151611d6b601f891682611c78565b8355505b6001600288020188555050505b505050505050565b6000611d8f82610e00565b91507fffffffffffffffffffffffffffffffffffffffffffffffffffffffffffffffff8203611dc157611dc0611a11565b5b600182019050919050565b6000611dd782610e00565b9150611de283610e00565b9250828203905081811115611dfa57611df9611a11565b5b92915050565b7f4e487b7100000000000000000000000000000000000000000000000000000000600052603260045260246000fdfea2646970667358221220531b20bc8e67385ca7505794d668c8afde9a68d1a0edaaee083bd068258dc3f764736f6c634300081c0033",
  "linkReferences": {},
  "deployedLinkReferences": {}
}