{
  "_format": "hh-sol-artifact-1",
  "contractName": "CrowdFunding",
  "sourceName": "contracts/CrowdFunding.sol",
  "abi": [
    {
      "anonymous": false,
      "inputs": [
        {
          "indexed": true,
          "internalType": "uint256",
          "name": "campaignId",
          "type": "uint256"
        },
        {
          "indexed": true,
          "internalType": "address",
          "name": "donator",
          "type": "address"
        },
        {
          "indexed": false,
          "internalType": "uint256",
          "name": "amount",
          "type": "uint256"
        }
      ],
      "name": "RefundIssued",
      "type": "event"
    },
    {
      "anonymous": false,
      "inputs": [
        {
          "indexed": true,
          "internalType": "uint256",
          "name": "campaignId",
          "type": "uint256"
        },
        {
          "indexed": false,
          "internalType": "uint256",
          "name": "requestId",
          "type": "uint256"
        },
        {
          "indexed": false,
          "internalType": "uint256",
          "name": "amount",
          "type": "uint256"
        },
        {
          "indexed": false,
          "internalType": "address",
          "name": "recipient",
          "type": "address"
        }
      ],
      "name": "RequestPaid",
      "type": "event"
    },
    {
      "inputs": [
        {
          "internalType": "uint256",
          "name": "_id",
          "type": "uint256"
        },
        {
          "internalType": "uint256",
          "name": "_requestId",
          "type": "uint256"
        }
      ],
      "name": "approveRequest",
      "outputs": [],
      "stateMutability": "nonpayable",
      "type": "function"
    },
    {
      "inputs": [
        {
          "internalType": "uint256",
          "name": "",
          "type": "uint256"
        }
      ],
      "name": "campaigns",
      "outputs": [
        {
          "internalType": "address",
          "name": "owner",
          "type": "address"
        },
        {
          "internalType": "string",
          "name": "title",
          "type": "string"
        },
        {
          "internalType": "string",
          "name": "description",
          "type": "string"
        },
        {
          "internalType": "uint256",
          "name": "target",
          "type": "uint256"
        },
        {
          "internalType": "uint256",
          "name": "deadline",
          "type": "uint256"
        },
        {
          "internalType": "uint256",
          "name": "amountCollected",
          "type": "uint256"
        },
        {
          "internalType": "string",
          "name": "image",
          "type": "string"
        }
      ],
      "stateMutability": "view",
      "type": "function"
    },
    {
      "inputs": [
        {
          "internalType": "uint256",
          "name": "",
          "type": "uint256"
        },
        {
          "internalType": "address",
          "name": "",
          "type": "address"
        }
      ],
      "name": "contributions",
      "outputs": [
        {
          "internalType": "uint256",
          "name": "",
          "type": "uint256"
        }
      ],
      "stateMutability": "view",
      "type": "function"
    },
    {
      "inputs": [
        {
          "internalType": "address",
          "name": "_owner",
          "type": "address"
        },
        {
          "internalType": "string",
          "name": "_title",
          "type": "string"
        },
        {
          "internalType": "string",
          "name": "_description",
          "type": "string"
        },
        {
          "internalType": "uint256",
          "name": "_target",
          "type": "uint256"
        },
        {
          "internalType": "uint256",
          "name": "_deadline",
          "type": "uint256"
        },
        {
          "internalType": "string",
          "name": "_image",
          "type": "string"
        }
      ],
      "name": "createCampaign",
      "outputs": [
        {
          "internalType": "uint256",
          "name": "",
          "type": "uint256"
        }
      ],
      "stateMutability": "nonpayable",
      "type": "function"
    },
    {
      "inputs": [
        {
          "internalType": "uint256",
          "name": "_id",
          "type": "uint256"
        },
        {
          "internalType": "string",
          "name": "_description",
          "type": "string"
        },
        {
          "internalType": "uint256",
          "name": "_value",
          "type": "uint256"
        }
      ],
      "name": "createRequest",
      "outputs": [],
      "stateMutability": "nonpayable",
      "type": "function"
    },
    {
      "inputs": [
        {
          "internalType": "uint256",
          "name": "_id",
          "type": "uint256"
        }
      ],
      "name": "donateToCampaign",
      "outputs": [],
      "stateMutability": "payable",
      "type": "function"
    },
    {
      "inputs": [
        {
          "internalType": "uint256",
          "name": "_id",
          "type": "uint256"
        },
        {
          "internalType": "uint256",
          "name": "_requestId",
          "type": "uint256"
        }
      ],
      "name": "finalizeRequest",
      "outputs": [],
      "stateMutability": "nonpayable",
      "type": "function"
    },
    {
      "inputs": [],
      "name": "getCampaigns",
      "outputs": [
        {
          "components": [
            {
              "internalType": "address",
              "name": "owner",
              "type": "address"
            },
            {
              "internalType": "string",
              "name": "title",
              "type": "string"
            },
            {
              "internalType": "string",
              "name": "description",
              "type": "string"
            },
            {
              "internalType": "uint256",
              "name": "target",
              "type": "uint256"
            },
            {
              "internalType": "uint256",
              "name": "deadline",
              "type": "uint256"
            },
            {
              "internalType": "uint256",
              "name": "amountCollected",
              "type": "uint256"
            },
            {
              "internalType": "string",
              "name": "image",
              "type": "string"
            },
            {
              "internalType": "address[]",
              "name": "donators",
              "type": "address[]"
            },
            {
              "internalType": "uint256[]",
              "name": "donations",
              "type": "uint256[]"
            }
          ],
          "internalType": "struct CrowdFunding.Campaign[]",
          "name": "",
          "type": "tuple[]"
        }
      ],
      "stateMutability": "view",
      "type": "function"
    },
    {
      "inputs": [
        {
          "internalType": "uint256",
          "name": "_id",
          "type": "uint256"
        }
      ],
      "name": "getDonators",
      "outputs": [
        {
          "internalType": "address[]",
          "name": "",
          "type": "address[]"
        },
        {
          "internalType": "uint256[]",
          "name": "",
          "type": "uint256[]"
        }
      ],
      "stateMutability": "view",
      "type": "function"
    },
    {
      "inputs": [
        {
          "internalType": "uint256",
          "name": "_id",
          "type": "uint256"
        },
        {
          "internalType": "uint256",
          "name": "_requestId",
          "type": "uint256"
        }
      ],
      "name": "getRequestDetails",
      "outputs": [
        {
          "internalType": "string",
          "name": "description",
          "type": "string"
        },
        {
          "internalType": "uint256",
          "name": "value",
          "type": "uint256"
        },
        {
          "internalType": "bool",
          "name": "completed",
          "type": "bool"
        },
        {
          "internalType": "uint256",
          "name": "approvalCount",
          "type": "uint256"
        },
        {
          "internalType": "bool",
          "name": "hasVoted",
          "type": "bool"
        }
      ],
      "stateMutability": "view",
      "type": "function"
    },
    {
      "inputs": [
        {
          "internalType": "uint256",
          "name": "_id",
          "type": "uint256"
        }
      ],
      "name": "getRequestsCount",
      "outputs": [
        {
          "internalType": "uint256",
          "name": "",
          "type": "uint256"
        }
      ],
      "stateMutability": "view",
      "type": "function"
    },
    {
      "inputs": [],
      "name": "numberOfCampaigns",
      "outputs": [
        {
          "internalType": "uint256",
          "name": "",
          "type": "uint256"
        }
      ],
      "stateMutability": "view",
      "type": "function"
    },
    {
      "inputs": [
        {
          "internalType": "uint256",
          "name": "_id",
          "type": "uint256"
        }
      ],
      "name": "refund",
      "outputs": [],
      "stateMutability": "nonpayable",
      "type": "function"
    },
    {
      "inputs": [
        {
          "internalType": "uint256",
          "name": "",
          "type": "uint256"
        },
        {
          "internalType": "uint256",
          "name": "",
          "type": "uint256"
        }
      ],
      "name": "requests",
      "outputs": [
        {
          "internalType": "string",
          "name": "description",
          "type": "string"
        },
        {
          "internalType": "uint256",
          "name": "value",
          "type": "uint256"
        },
        {
          "internalType": "address",
          "name": "recipient",
          "type": "address"
        },
        {
          "internalType": "bool",
          "name": "completed",
          "type": "bool"
        },
        {
          "internalType": "uint256",
          "name": "approvalCount",
          "type": "uint256"
        }
      ],
      "stateMutability": "view",
      "type": "function"
    }
  ],
  "bytecode": "0x60806040526000600355348015601457600080fd5b50612f11806100246000396000f3fe6080604052600436106100dd5760003560e01c8063777d961d1161007f5780639943e3a1116100595780639943e3a1146102e45780639a5e5b7714610321578063a6b036331461035e578063c8b9dd6714610389576100dd565b8063777d961d146102395780639089add81461027a578063913fdfbd146102bb576100dd565b8063278ecde1116100bb578063278ecde11461018e5780632c0a90a9146101b75780633d891f59146101e057806342a4fda81461021d576100dd565b806307ca140d146100e25780630fa91fa91461010d578063141961bc1461014b575b600080fd5b3480156100ee57600080fd5b506100f76103b2565b60405161010491906119a7565b60405180910390f35b34801561011957600080fd5b50610134600480360381019061012f9190611a02565b6103b8565b604051610142929190611bdd565b60405180910390f35b34801561015757600080fd5b50610172600480360381019061016d9190611a02565b6104c8565b6040516101859796959493929190611cb3565b60405180910390f35b34801561019a57600080fd5b506101b560048036038101906101b09190611a02565b6106c2565b005b3480156101c357600080fd5b506101de60048036038101906101d99190611d37565b610957565b005b3480156101ec57600080fd5b5061020760048036038101906102029190611da3565b610bdd565b60405161021491906119a7565b60405180910390f35b61023760048036038101906102329190611a02565b610c02565b005b34801561024557600080fd5b50610260600480360381019061025b9190611d37565b610d77565b604051610271959493929190611dfe565b60405180910390f35b34801561028657600080fd5b506102a1600480360381019061029c9190611d37565b610ec6565b6040516102b2959493929190611e58565b60405180910390f35b3480156102c757600080fd5b506102e260048036038101906102dd9190611fe7565b610fce565b005b3480156102f057600080fd5b5061030b60048036038101906103069190612056565b61117a565b60405161031891906119a7565b60405180910390f35b34801561032d57600080fd5b5061034860048036038101906103439190611a02565b61129e565b60405161035591906119a7565b60405180910390f35b34801561036a57600080fd5b506103736112be565b6040516103809190612402565b60405180910390f35b34801561039557600080fd5b506103b060048036038101906103ab9190611d37565b61168e565b005b60035481565b6060806000808481526020019081526020016000206007016000808581526020019081526020016000206008018180548060200260200160405190810160405280929190818152602001828054801561046657602002820191906000526020600020905b8160009054906101000a900473ffffffffffffffffffffffffffffffffffffffff1673ffffffffffffffffffffffffffffffffffffffff168152602001906001019080831161041c575b50505050509150808054806020026020016040519081016040528092919081815260200182805480156104b857602002820191906000526020600020905b8154815260200190600101908083116104a4575b5050505050905091509150915091565b60006020528060005260406000206000915090508060000160009054906101000a900473ffffffffffffffffffffffffffffffffffffffff169080600101805461051190612453565b80601f016020809104026020016040519081016040528092919081815260200182805461053d90612453565b801561058a5780601f1061055f5761010080835404028352916020019161058a565b820191906000526020600020905b81548152906001019060200180831161056d57829003601f168201915b50505050509080600201805461059f90612453565b80601f01602080910402602001604051908101604052809291908181526020018280546105cb90612453565b80156106185780601f106105ed57610100808354040283529160200191610618565b820191906000526020600020905b8154815290600101906020018083116105fb57829003601f168201915b50505050509080600301549080600401549080600501549080600601805461063f90612453565b80601f016020809104026020016040519081016040528092919081815260200182805461066b90612453565b80156106b85780601f1061068d576101008083540402835291602001916106b8565b820191906000526020600020905b81548152906001019060200180831161069b57829003601f168201915b5050505050905087565b600080600083815260200190815260200160002090508060040154421161071e576040517f08c379a0000000000000000000000000000000000000000000000000000000008152600401610715906124d0565b60405180910390fd5b8060030154816005015410610768576040517f08c379a000000000000000000000000000000000000000000000000000000000815260040161075f90612562565b60405180910390fd5b60006002600084815260200190815260200160002060003373ffffffffffffffffffffffffffffffffffffffff1673ffffffffffffffffffffffffffffffffffffffff16815260200190815260200160002054905060008111610800576040517f08c379a00000000000000000000000000000000000000000000000000000000081526004016107f7906125f4565b60405180910390fd5b60006002600085815260200190815260200160002060003373ffffffffffffffffffffffffffffffffffffffff1673ffffffffffffffffffffffffffffffffffffffff1681526020019081526020016000208190555060003373ffffffffffffffffffffffffffffffffffffffff168260405161087c90612645565b60006040518083038185875af1925050503d80600081146108b9576040519150601f19603f3d011682016040523d82523d6000602084013e6108be565b606091505b5050905080610902576040517f08c379a00000000000000000000000000000000000000000000000000000000081526004016108f9906126a6565b60405180910390fd5b3373ffffffffffffffffffffffffffffffffffffffff16847f7a482fdeb6bc9a1376f597068a214a7a39472bb2eff1b8cad21ba04f49ddca1b8460405161094991906119a7565b60405180910390a350505050565b600080600084815260200190815260200160002090506000600160008581526020019081526020016000208381548110610994576109936126c6565b5b906000526020600020906005020190506000805b8360070180549050811015610a40573373ffffffffffffffffffffffffffffffffffffffff168460070182815481106109e4576109e36126c6565b5b9060005260206000200160009054906101000a900473ffffffffffffffffffffffffffffffffffffffff1673ffffffffffffffffffffffffffffffffffffffff1603610a335760019150610a40565b80806001019150506109a8565b5080610a81576040517f08c379a0000000000000000000000000000000000000000000000000000000008152600401610a7890612741565b60405180910390fd5b8160040160003373ffffffffffffffffffffffffffffffffffffffff1673ffffffffffffffffffffffffffffffffffffffff16815260200190815260200160002060009054906101000a900460ff1615610b10576040517f08c379a0000000000000000000000000000000000000000000000000000000008152600401610b07906127ad565b60405180910390fd5b8160020160149054906101000a900460ff1615610b62576040517f08c379a0000000000000000000000000000000000000000000000000000000008152600401610b5990612819565b60405180910390fd5b60018260040160003373ffffffffffffffffffffffffffffffffffffffff1673ffffffffffffffffffffffffffffffffffffffff16815260200190815260200160002060006101000a81548160ff021916908315150217905550816003016000815480929190610bd190612868565b91905055505050505050565b6002602052816000526040600020602052806000526040600020600091509150505481565b60003490506000806000848152602001908152602001600020905080600401544210610c63576040517f08c379a0000000000000000000000000000000000000000000000000000000008152600401610c5a906128fc565b60405180910390fd5b80600701339080600181540180825580915050600190039060005260206000200160009091909190916101000a81548173ffffffffffffffffffffffffffffffffffffffff021916908373ffffffffffffffffffffffffffffffffffffffff16021790555080600801829080600181540180825580915050600190039060005260206000200160009091909190915055818160050154610d03919061291c565b8160050181905550816002600085815260200190815260200160002060003373ffffffffffffffffffffffffffffffffffffffff1673ffffffffffffffffffffffffffffffffffffffff1681526020019081526020016000206000828254610d6b919061291c565b92505081905550505050565b60606000806000806000600160008981526020019081526020016000208781548110610da657610da56126c6565b5b906000526020600020906005020190508060000181600101548260020160149054906101000a900460ff1683600301548460040160003373ffffffffffffffffffffffffffffffffffffffff1673ffffffffffffffffffffffffffffffffffffffff16815260200190815260200160002060009054906101000a900460ff16848054610e3190612453565b80601f0160208091040260200160405190810160405280929190818152602001828054610e5d90612453565b8015610eaa5780601f10610e7f57610100808354040283529160200191610eaa565b820191906000526020600020905b815481529060010190602001808311610e8d57829003601f168201915b5050505050945095509550955095509550509295509295909350565b60016020528160005260406000208181548110610ee257600080fd5b906000526020600020906005020160009150915050806000018054610f0690612453565b80601f0160208091040260200160405190810160405280929190818152602001828054610f3290612453565b8015610f7f5780601f10610f5457610100808354040283529160200191610f7f565b820191906000526020600020905b815481529060010190602001808311610f6257829003601f168201915b5050505050908060010154908060020160009054906101000a900473ffffffffffffffffffffffffffffffffffffffff16908060020160149054906101000a900460ff16908060030154905085565b600080600085815260200190815260200160002090508060000160009054906101000a900473ffffffffffffffffffffffffffffffffffffffff1673ffffffffffffffffffffffffffffffffffffffff163373ffffffffffffffffffffffffffffffffffffffff1614611076576040517f08c379a000000000000000000000000000000000000000000000000000000000815260040161106d9061299c565b60405180910390fd5b478211156110b9576040517f08c379a00000000000000000000000000000000000000000000000000000000081526004016110b090612a08565b60405180910390fd5b6000600160008681526020019081526020016000206001816001815401808255809150500390600052602060002090600502019050838160000190816110ff9190612bd4565b50828160010181905550338160020160006101000a81548173ffffffffffffffffffffffffffffffffffffffff021916908373ffffffffffffffffffffffffffffffffffffffff16021790555060008160020160146101000a81548160ff021916908315150217905550600081600301819055505050505050565b600080600080600354815260200190815260200160002090504284116111d5576040517f08c379a00000000000000000000000000000000000000000000000000000000081526004016111cc90612d18565b60405180910390fd5b878160000160006101000a81548173ffffffffffffffffffffffffffffffffffffffff021916908373ffffffffffffffffffffffffffffffffffffffff160217905550868160010190816112299190612bd4565b508581600201908161123b9190612bd4565b5084816003018190555083816004018190555060008160050181905550828160060190816112699190612bd4565b506003600081548092919061127d90612868565b919050555060016003546112919190612d38565b9150509695505050505050565b600060016000838152602001908152602001600020805490509050919050565b6060600060035467ffffffffffffffff8111156112de576112dd611ebc565b5b60405190808252806020026020018201604052801561131757816020015b61130461192c565b8152602001906001900390816112fc5790505b50905060005b600354811015611686576000806000838152602001908152602001600020905080604051806101200160405290816000820160009054906101000a900473ffffffffffffffffffffffffffffffffffffffff1673ffffffffffffffffffffffffffffffffffffffff1673ffffffffffffffffffffffffffffffffffffffff1681526020016001820180546113b090612453565b80601f01602080910402602001604051908101604052809291908181526020018280546113dc90612453565b80156114295780601f106113fe57610100808354040283529160200191611429565b820191906000526020600020905b81548152906001019060200180831161140c57829003601f168201915b5050505050815260200160028201805461144290612453565b80601f016020809104026020016040519081016040528092919081815260200182805461146e90612453565b80156114bb5780601f10611490576101008083540402835291602001916114bb565b820191906000526020600020905b81548152906001019060200180831161149e57829003601f168201915b505050505081526020016003820154815260200160048201548152602001600582015481526020016006820180546114f290612453565b80601f016020809104026020016040519081016040528092919081815260200182805461151e90612453565b801561156b5780601f106115405761010080835404028352916020019161156b565b820191906000526020600020905b81548152906001019060200180831161154e57829003601f168201915b50505050508152602001600782018054806020026020016040519081016040528092919081815260200182805480156115f957602002820191906000526020600020905b8160009054906101000a900473ffffffffffffffffffffffffffffffffffffffff1673ffffffffffffffffffffffffffffffffffffffff16815260200190600101908083116115af575b505050505081526020016008820180548060200260200160405190810160405280929190818152602001828054801561165157602002820191906000526020600020905b81548152602001906001019080831161163d575b50505050508152505083838151811061166d5761166c6126c6565b5b602002602001018190525050808060010191505061131d565b508091505090565b6000806000848152602001908152602001600020905060006001600085815260200190815260200160002083815481106116cb576116ca6126c6565b5b906000526020600020906005020190508160000160009054906101000a900473ffffffffffffffffffffffffffffffffffffffff1673ffffffffffffffffffffffffffffffffffffffff163373ffffffffffffffffffffffffffffffffffffffff161461176d576040517f08c379a000000000000000000000000000000000000000000000000000000000815260040161176490612db8565b60405180910390fd5b8060020160149054906101000a900460ff16156117bf576040517f08c379a00000000000000000000000000000000000000000000000000000000081526004016117b690612819565b60405180910390fd5b600282600701805490506117d39190612e07565b816003015411611818576040517f08c379a000000000000000000000000000000000000000000000000000000000815260040161180f90612e84565b60405180910390fd5b60003373ffffffffffffffffffffffffffffffffffffffff16826001015460405161184290612645565b60006040518083038185875af1925050503d806000811461187f576040519150601f19603f3d011682016040523d82523d6000602084013e611884565b606091505b50509050806118c8576040517f08c379a00000000000000000000000000000000000000000000000000000000081526004016118bf906126a6565b60405180910390fd5b60018260020160146101000a81548160ff021916908315150217905550847f2c995aad18f64d8923d91995ca7ebe0fcfe3b5addfbc8cb9c7e216bf9a83b6228584600101543360405161191d93929190612ea4565b60405180910390a25050505050565b604051806101200160405280600073ffffffffffffffffffffffffffffffffffffffff16815260200160608152602001606081526020016000815260200160008152602001600081526020016060815260200160608152602001606081525090565b6000819050919050565b6119a18161198e565b82525050565b60006020820190506119bc6000830184611998565b92915050565b6000604051905090565b600080fd5b600080fd5b6119df8161198e565b81146119ea57600080fd5b50565b6000813590506119fc816119d6565b92915050565b600060208284031215611a1857611a176119cc565b5b6000611a26848285016119ed565b91505092915050565b600081519050919050565b600082825260208201905092915050565b6000819050602082019050919050565b600073ffffffffffffffffffffffffffffffffffffffff82169050919050565b6000611a8682611a5b565b9050919050565b611a9681611a7b565b82525050565b6000611aa88383611a8d565b60208301905092915050565b6000602082019050919050565b6000611acc82611a2f565b611ad68185611a3a565b9350611ae183611a4b565b8060005b83811015611b12578151611af98882611a9c565b9750611b0483611ab4565b925050600181019050611ae5565b5085935050505092915050565b600081519050919050565b600082825260208201905092915050565b6000819050602082019050919050565b611b548161198e565b82525050565b6000611b668383611b4b565b60208301905092915050565b6000602082019050919050565b6000611b8a82611b1f565b611b948185611b2a565b9350611b9f83611b3b565b8060005b83811015611bd0578151611bb78882611b5a565b9750611bc283611b72565b925050600181019050611ba3565b5085935050505092915050565b60006040820190508181036000830152611bf78185611ac1565b90508181036020830152611c0b8184611b7f565b90509392505050565b611c1d81611a7b565b82525050565b600081519050919050565b600082825260208201905092915050565b60005b83811015611c5d578082015181840152602081019050611c42565b60008484015250505050565b6000601f19601f8301169050919050565b6000611c8582611c23565b611c8f8185611c2e565b9350611c9f818560208601611c3f565b611ca881611c69565b840191505092915050565b600060e082019050611cc8600083018a611c14565b8181036020830152611cda8189611c7a565b90508181036040830152611cee8188611c7a565b9050611cfd6060830187611998565b611d0a6080830186611998565b611d1760a0830185611998565b81810360c0830152611d298184611c7a565b905098975050505050505050565b60008060408385031215611d4e57611d4d6119cc565b5b6000611d5c858286016119ed565b9250506020611d6d858286016119ed565b9150509250929050565b611d8081611a7b565b8114611d8b57600080fd5b50565b600081359050611d9d81611d77565b92915050565b60008060408385031215611dba57611db96119cc565b5b6000611dc8858286016119ed565b9250506020611dd985828601611d8e565b9150509250929050565b60008115159050919050565b611df881611de3565b82525050565b600060a0820190508181036000830152611e188188611c7a565b9050611e276020830187611998565b611e346040830186611def565b611e416060830185611998565b611e4e6080830184611def565b9695505050505050565b600060a0820190508181036000830152611e728188611c7a565b9050611e816020830187611998565b611e8e6040830186611c14565b611e9b6060830185611def565b611ea86080830184611998565b9695505050505050565b600080fd5b600080fd5b7f4e487b7100000000000000000000000000000000000000000000000000000000600052604160045260246000fd5b611ef482611c69565b810181811067ffffffffffffffff82111715611f1357611f12611ebc565b5b80604052505050565b6000611f266119c2565b9050611f328282611eeb565b919050565b600067ffffffffffffffff821115611f5257611f51611ebc565b5b611f5b82611c69565b9050602081019050919050565b82818337600083830152505050565b6000611f8a611f8584611f37565b611f1c565b905082815260208101848484011115611fa657611fa5611eb7565b5b611fb1848285611f68565b509392505050565b600082601f830112611fce57611fcd611eb2565b5b8135611fde848260208601611f77565b91505092915050565b60008060006060848603121561200057611fff6119cc565b5b600061200e868287016119ed565b935050602084013567ffffffffffffffff81111561202f5761202e6119d1565b5b61203b86828701611fb9565b925050604061204c868287016119ed565b9150509250925092565b60008060008060008060c08789031215612073576120726119cc565b5b600061208189828a01611d8e565b965050602087013567ffffffffffffffff8111156120a2576120a16119d1565b5b6120ae89828a01611fb9565b955050604087013567ffffffffffffffff8111156120cf576120ce6119d1565b5b6120db89828a01611fb9565b94505060606120ec89828a016119ed565b93505060806120fd89828a016119ed565b92505060a087013567ffffffffffffffff81111561211e5761211d6119d1565b5b61212a89828a01611fb9565b9150509295509295509295565b600081519050919050565b600082825260208201905092915050565b6000819050602082019050919050565b600082825260208201905092915050565b600061217f82611c23565b6121898185612163565b9350612199818560208601611c3f565b6121a281611c69565b840191505092915050565b600082825260208201905092915050565b60006121c982611a2f565b6121d381856121ad565b93506121de83611a4b565b8060005b8381101561220f5781516121f68882611a9c565b975061220183611ab4565b9250506001810190506121e2565b5085935050505092915050565b600082825260208201905092915050565b600061223882611b1f565b612242818561221c565b935061224d83611b3b565b8060005b8381101561227e5781516122658882611b5a565b975061227083611b72565b925050600181019050612251565b5085935050505092915050565b6000610120830160008301516122a46000860182611a8d565b50602083015184820360208601526122bc8282612174565b915050604083015184820360408601526122d68282612174565b91505060608301516122eb6060860182611b4b565b5060808301516122fe6080860182611b4b565b5060a083015161231160a0860182611b4b565b5060c083015184820360c08601526123298282612174565b91505060e083015184820360e086015261234382826121be565b91505061010083015184820361010086015261235f828261222d565b9150508091505092915050565b6000612378838361228b565b905092915050565b6000602082019050919050565b600061239882612137565b6123a28185612142565b9350836020820285016123b485612153565b8060005b858110156123f057848403895281516123d1858261236c565b94506123dc83612380565b925060208a019950506001810190506123b8565b50829750879550505050505092915050565b6000602082019050818103600083015261241c818461238d565b905092915050565b7f4e487b7100000000000000000000000000000000000000000000000000000000600052602260045260246000fd5b6000600282049050600182168061246b57607f821691505b60208210810361247e5761247d612424565b5b50919050565b7f43616d706169676e20686173206e6f7420656e64656420796574000000000000600082015250565b60006124ba601a83611c2e565b91506124c582612484565b602082019050919050565b600060208201905081810360008301526124e9816124ad565b9050919050565b7f43616d706169676e2074617267657420776173206d65742c2063616e6e6f742060008201527f726566756e640000000000000000000000000000000000000000000000000000602082015250565b600061254c602683611c2e565b9150612557826124f0565b604082019050919050565b6000602082019050818103600083015261257b8161253f565b9050919050565b7f596f752068617665206e6f20636f6e747269627574696f6e7320746f2072656660008201527f756e640000000000000000000000000000000000000000000000000000000000602082015250565b60006125de602383611c2e565b91506125e982612582565b604082019050919050565b6000602082019050818103600083015261260d816125d1565b9050919050565b600081905092915050565b50565b600061262f600083612614565b915061263a8261261f565b600082019050919050565b600061265082612622565b9150819050919050565b7f4661696c656420746f2073656e64204574686572000000000000000000000000600082015250565b6000612690601483611c2e565b915061269b8261265a565b602082019050919050565b600060208201905081810360008301526126bf81612683565b9050919050565b7f4e487b7100000000000000000000000000000000000000000000000000000000600052603260045260246000fd5b7f596f7520617265206e6f74206120646f6e61746f720000000000000000000000600082015250565b600061272b601583611c2e565b9150612736826126f5565b602082019050919050565b6000602082019050818103600083015261275a8161271e565b9050919050565b7f596f75206861766520616c726561647920766f74656400000000000000000000600082015250565b6000612797601683611c2e565b91506127a282612761565b602082019050919050565b600060208201905081810360008301526127c68161278a565b9050919050565b7f5265717565737420616c726561647920636f6d706c6574656400000000000000600082015250565b6000612803601983611c2e565b915061280e826127cd565b602082019050919050565b60006020820190508181036000830152612832816127f6565b9050919050565b7f4e487b7100000000000000000000000000000000000000000000000000000000600052601160045260246000fd5b60006128738261198e565b91507fffffffffffffffffffffffffffffffffffffffffffffffffffffffffffffffff82036128a5576128a4612839565b5b600182019050919050565b7f43616d706169676e20456e646564000000000000000000000000000000000000600082015250565b60006128e6600e83611c2e565b91506128f1826128b0565b602082019050919050565b60006020820190508181036000830152612915816128d9565b9050919050565b60006129278261198e565b91506129328361198e565b925082820190508082111561294a57612949612839565b5b92915050565b7f4f6e6c79206f776e65722063616e206372656174652072657175657374730000600082015250565b6000612986601e83611c2e565b915061299182612950565b602082019050919050565b600060208201905081810360008301526129b581612979565b9050919050565b7f4e6f7420656e6f7567682066756e647320696e20636f6e747261637400000000600082015250565b60006129f2601c83611c2e565b91506129fd826129bc565b602082019050919050565b60006020820190508181036000830152612a21816129e5565b9050919050565b60008190508160005260206000209050919050565b60006020601f8301049050919050565b600082821b905092915050565b600060088302612a8a7fffffffffffffffffffffffffffffffffffffffffffffffffffffffffffffffff82612a4d565b612a948683612a4d565b95508019841693508086168417925050509392505050565b6000819050919050565b6000612ad1612acc612ac78461198e565b612aac565b61198e565b9050919050565b6000819050919050565b612aeb83612ab6565b612aff612af782612ad8565b848454612a5a565b825550505050565b600090565b612b14612b07565b612b1f818484612ae2565b505050565b5b81811015612b4357612b38600082612b0c565b600181019050612b25565b5050565b601f821115612b8857612b5981612a28565b612b6284612a3d565b81016020851015612b71578190505b612b85612b7d85612a3d565b830182612b24565b50505b505050565b600082821c905092915050565b6000612bab60001984600802612b8d565b1980831691505092915050565b6000612bc48383612b9a565b9150826002028217905092915050565b612bdd82611c23565b67ffffffffffffffff811115612bf657612bf5611ebc565b5b612c008254612453565b612c0b828285612b47565b600060209050601f831160018114612c3e5760008415612c2c578287015190505b612c368582612bb8565b865550612c9e565b601f198416612c4c86612a28565b60005b82811015612c7457848901518255600182019150602085019450602081019050612c4f565b86831015612c915784890151612c8d601f891682612b9a565b8355505b6001600288020188555050505b505050505050565b7f54686520646561646c696e652073686f756c642062652061206461746520696e60008201527f20746865206675747572652e0000000000000000000000000000000000000000602082015250565b6000612d02602c83611c2e565b9150612d0d82612ca6565b604082019050919050565b60006020820190508181036000830152612d3181612cf5565b9050919050565b6000612d438261198e565b9150612d4e8361198e565b9250828203905081811115612d6657612d65612839565b5b92915050565b7f4f6e6c79206f776e65722063616e2066696e616c697a65000000000000000000600082015250565b6000612da2601783611c2e565b9150612dad82612d6c565b602082019050919050565b60006020820190508181036000830152612dd181612d95565b9050919050565b7f4e487b7100000000000000000000000000000000000000000000000000000000600052601260045260246000fd5b6000612e128261198e565b9150612e1d8361198e565b925082612e2d57612e2c612dd8565b5b828204905092915050565b7f4e6f7420656e6f75676820617070726f76616c73000000000000000000000000600082015250565b6000612e6e601483611c2e565b9150612e7982612e38565b602082019050919050565b60006020820190508181036000830152612e9d81612e61565b9050919050565b6000606082019050612eb96000830186611998565b612ec66020830185611998565b612ed36040830184611c14565b94935050505056fea264697066735822122046b70b54ffc99c80a9b8be63a264e66b28062898983ec85765d7437db263737864736f6c634300081c0033",
  "linkReferences": {},
  "deployedLinkReferences": {}
}